{
  "contractName": "DepositPermit",
  "abi": [
    {
      "inputs": [
        {
          "internalType": "address",
          "name": "token_addr",
          "type": "address"
        }
      ],
      "stateMutability": "nonpayable",
      "type": "constructor"
    },
    {
      "anonymous": false,
      "inputs": [
        {
          "indexed": false,
          "internalType": "address",
          "name": "",
          "type": "address"
        },
        {
          "indexed": false,
          "internalType": "uint256",
          "name": "",
          "type": "uint256"
        }
      ],
      "name": "Deposit",
      "type": "event"
    },
    {
      "anonymous": false,
      "inputs": [
        {
          "indexed": false,
          "internalType": "address",
          "name": "",
          "type": "address"
        },
        {
          "indexed": false,
          "internalType": "uint256",
          "name": "",
          "type": "uint256"
        }
      ],
      "name": "Withdrawl",
      "type": "event"
    },
    {
      "inputs": [
        {
          "internalType": "uint256",
          "name": "amount",
          "type": "uint256"
        },
        {
          "internalType": "uint256",
          "name": "deadline",
          "type": "uint256"
        },
        {
          "internalType": "uint8",
          "name": "v",
          "type": "uint8"
        },
        {
          "internalType": "bytes32",
          "name": "r",
          "type": "bytes32"
        },
        {
          "internalType": "bytes32",
          "name": "s",
          "type": "bytes32"
        }
      ],
      "name": "depositPermit",
      "outputs": [],
      "stateMutability": "nonpayable",
      "type": "function"
    },
    {
      "inputs": [],
      "name": "withdraw",
      "outputs": [],
      "stateMutability": "nonpayable",
      "type": "function"
    }
  ],
  "bytecode": "0x608060405234801561001057600080fd5b50604051610793380380610793833981810160405281019061003291906100db565b806000806101000a81548173ffffffffffffffffffffffffffffffffffffffff021916908373ffffffffffffffffffffffffffffffffffffffff16021790555050610108565b600080fd5b600073ffffffffffffffffffffffffffffffffffffffff82169050919050565b60006100a88261007d565b9050919050565b6100b88161009d565b81146100c357600080fd5b50565b6000815190506100d5816100af565b92915050565b6000602082840312156100f1576100f0610078565b5b60006100ff848285016100c6565b91505092915050565b61067c806101176000396000f3fe608060405234801561001057600080fd5b50600436106100365760003560e01c8063245c96321461003b5780633ccfd60b14610057575b600080fd5b61005560048036038101906100509190610429565b610061565b005b61005f61021d565b005b60008054906101000a900473ffffffffffffffffffffffffffffffffffffffff1673ffffffffffffffffffffffffffffffffffffffff1663d505accf333088888888886040518863ffffffff1660e01b81526004016100c69796959493929190610512565b600060405180830381600087803b1580156100e057600080fd5b505af11580156100f4573d6000803e3d6000fd5b5050505060008054906101000a900473ffffffffffffffffffffffffffffffffffffffff1673ffffffffffffffffffffffffffffffffffffffff166323b872dd3330886040518463ffffffff1660e01b815260040161015593929190610581565b6020604051808303816000875af1158015610174573d6000803e3d6000fd5b505050506040513d601f19601f8201168201806040525081019061019891906105f0565b5084600160003373ffffffffffffffffffffffffffffffffffffffff1673ffffffffffffffffffffffffffffffffffffffff168152602001908152602001600020819055507fe1fffcc4923d04b559f4d29a8bfc6cda04eb5b0d3c460751c2402c5c5cc9109c338660405161020e92919061061d565b60405180910390a15050505050565b6000600160003373ffffffffffffffffffffffffffffffffffffffff1673ffffffffffffffffffffffffffffffffffffffff168152602001908152602001600020549050600160003373ffffffffffffffffffffffffffffffffffffffff1673ffffffffffffffffffffffffffffffffffffffff1681526020019081526020016000206000905560008054906101000a900473ffffffffffffffffffffffffffffffffffffffff1673ffffffffffffffffffffffffffffffffffffffff1663a9059cbb33836040518363ffffffff1660e01b81526004016102ff92919061061d565b6020604051808303816000875af115801561031e573d6000803e3d6000fd5b505050506040513d601f19601f8201168201806040525081019061034291906105f0565b507f65ac0d8bb8cbc0e989ebd02ddc5161d7c499f7c21792e43fcf170314fe6bcc3f338260405161037492919061061d565b60405180910390a150565b600080fd5b6000819050919050565b61039781610384565b81146103a257600080fd5b50565b6000813590506103b48161038e565b92915050565b600060ff82169050919050565b6103d0816103ba565b81146103db57600080fd5b50565b6000813590506103ed816103c7565b92915050565b6000819050919050565b610406816103f3565b811461041157600080fd5b50565b600081359050610423816103fd565b92915050565b600080600080600060a086880312156104455761044461037f565b5b6000610453888289016103a5565b9550506020610464888289016103a5565b9450506040610475888289016103de565b935050606061048688828901610414565b925050608061049788828901610414565b9150509295509295909350565b600073ffffffffffffffffffffffffffffffffffffffff82169050919050565b60006104cf826104a4565b9050919050565b6104df816104c4565b82525050565b6104ee81610384565b82525050565b6104fd816103ba565b82525050565b61050c816103f3565b82525050565b600060e082019050610527600083018a6104d6565b61053460208301896104d6565b61054160408301886104e5565b61054e60608301876104e5565b61055b60808301866104f4565b61056860a0830185610503565b61057560c0830184610503565b98975050505050505050565b600060608201905061059660008301866104d6565b6105a360208301856104d6565b6105b060408301846104e5565b949350505050565b60008115159050919050565b6105cd816105b8565b81146105d857600080fd5b50565b6000815190506105ea816105c4565b92915050565b6000602082840312156106065761060561037f565b5b6000610614848285016105db565b91505092915050565b600060408201905061063260008301856104d6565b61063f60208301846104e5565b939250505056fea26469706673582212205513da1bb2866fb13425f13f0eb0d50f7b217f489f64cbe76eaa638c40ccc96664736f6c634300080a0033",
  "immutableReferences": {},
  "source": "//SPDX-License-Identifier: GPL3\npragma solidity ^0.8;\n\nimport \"./interfaces/ISignCoin.sol\";\n\ncontract DepositPermit {\n\n    ISignCoin token;\n\n    mapping(address => uint) deposits;\n\n    event Deposit(address, uint);\n    event Withdrawl(address, uint);\n\n    constructor(address token_addr) {\n        token = ISignCoin(token_addr);\n    }\n\n    function depositPermit(uint amount, uint deadline, uint8 v, bytes32 r, bytes32 s) public\n    {\n        token.permit(msg.sender, address(this), amount, deadline, v, r, s);\n        token.transferFrom(msg.sender, address(this), amount);\n\n        deposits[msg.sender] = amount;\n\n        emit Deposit(msg.sender, amount);\n    }\n\n    function withdraw() public\n    {\n        uint amount = deposits[msg.sender];\n        delete deposits[msg.sender];\n\n        token.transfer(msg.sender, amount);\n\n        emit Withdrawl(msg.sender, amount);\n    }\n}\n\n\n",
  "sourcePath": "/home/renny/doc/web3_arc/erc20-permit/contracts/DepositPermit.sol",
  "compiler": {
    "name": "solc",
    "version": "0.8.10+commit.fc410830.Emscripten.clang"
  },
  "schemaVersion": "3.4.9",
  "updatedAt": "2022-08-20T23:13:33.830Z",
  "networkType": "ethereum",
  "devdoc": {
    "kind": "dev",
    "methods": {},
    "version": 1
  },
  "userdoc": {
    "kind": "user",
    "methods": {},
    "version": 1
  }
}