{
  "contractName": "SignCoin",
  "abi": [
    {
      "inputs": [],
      "stateMutability": "nonpayable",
      "type": "constructor"
    },
    {
      "anonymous": false,
      "inputs": [
        {
          "indexed": true,
          "internalType": "address",
          "name": "owner",
          "type": "address"
        },
        {
          "indexed": true,
          "internalType": "address",
          "name": "spender",
          "type": "address"
        },
        {
          "indexed": false,
          "internalType": "uint256",
          "name": "value",
          "type": "uint256"
        }
      ],
      "name": "Approval",
      "type": "event"
    },
    {
      "anonymous": false,
      "inputs": [
        {
          "indexed": true,
          "internalType": "address",
          "name": "from",
          "type": "address"
        },
        {
          "indexed": true,
          "internalType": "address",
          "name": "to",
          "type": "address"
        },
        {
          "indexed": false,
          "internalType": "uint256",
          "name": "value",
          "type": "uint256"
        }
      ],
      "name": "Transfer",
      "type": "event"
    },
    {
      "inputs": [],
      "name": "DOMAIN_SEPARATOR",
      "outputs": [
        {
          "internalType": "bytes32",
          "name": "",
          "type": "bytes32"
        }
      ],
      "stateMutability": "view",
      "type": "function",
      "constant": true
    },
    {
      "inputs": [
        {
          "internalType": "address",
          "name": "owner",
          "type": "address"
        },
        {
          "internalType": "address",
          "name": "spender",
          "type": "address"
        }
      ],
      "name": "allowance",
      "outputs": [
        {
          "internalType": "uint256",
          "name": "",
          "type": "uint256"
        }
      ],
      "stateMutability": "view",
      "type": "function",
      "constant": true
    },
    {
      "inputs": [
        {
          "internalType": "address",
          "name": "spender",
          "type": "address"
        },
        {
          "internalType": "uint256",
          "name": "amount",
          "type": "uint256"
        }
      ],
      "name": "approve",
      "outputs": [
        {
          "internalType": "bool",
          "name": "",
          "type": "bool"
        }
      ],
      "stateMutability": "nonpayable",
      "type": "function"
    },
    {
      "inputs": [
        {
          "internalType": "address",
          "name": "account",
          "type": "address"
        }
      ],
      "name": "balanceOf",
      "outputs": [
        {
          "internalType": "uint256",
          "name": "",
          "type": "uint256"
        }
      ],
      "stateMutability": "view",
      "type": "function",
      "constant": true
    },
    {
      "inputs": [],
      "name": "decimals",
      "outputs": [
        {
          "internalType": "uint8",
          "name": "",
          "type": "uint8"
        }
      ],
      "stateMutability": "view",
      "type": "function",
      "constant": true
    },
    {
      "inputs": [
        {
          "internalType": "address",
          "name": "spender",
          "type": "address"
        },
        {
          "internalType": "uint256",
          "name": "subtractedValue",
          "type": "uint256"
        }
      ],
      "name": "decreaseAllowance",
      "outputs": [
        {
          "internalType": "bool",
          "name": "",
          "type": "bool"
        }
      ],
      "stateMutability": "nonpayable",
      "type": "function"
    },
    {
      "inputs": [
        {
          "internalType": "address",
          "name": "spender",
          "type": "address"
        },
        {
          "internalType": "uint256",
          "name": "addedValue",
          "type": "uint256"
        }
      ],
      "name": "increaseAllowance",
      "outputs": [
        {
          "internalType": "bool",
          "name": "",
          "type": "bool"
        }
      ],
      "stateMutability": "nonpayable",
      "type": "function"
    },
    {
      "inputs": [],
      "name": "name",
      "outputs": [
        {
          "internalType": "string",
          "name": "",
          "type": "string"
        }
      ],
      "stateMutability": "view",
      "type": "function",
      "constant": true
    },
    {
      "inputs": [
        {
          "internalType": "address",
          "name": "owner",
          "type": "address"
        }
      ],
      "name": "nonces",
      "outputs": [
        {
          "internalType": "uint256",
          "name": "",
          "type": "uint256"
        }
      ],
      "stateMutability": "view",
      "type": "function",
      "constant": true
    },
    {
      "inputs": [
        {
          "internalType": "address",
          "name": "owner",
          "type": "address"
        },
        {
          "internalType": "address",
          "name": "spender",
          "type": "address"
        },
        {
          "internalType": "uint256",
          "name": "value",
          "type": "uint256"
        },
        {
          "internalType": "uint256",
          "name": "deadline",
          "type": "uint256"
        },
        {
          "internalType": "uint8",
          "name": "v",
          "type": "uint8"
        },
        {
          "internalType": "bytes32",
          "name": "r",
          "type": "bytes32"
        },
        {
          "internalType": "bytes32",
          "name": "s",
          "type": "bytes32"
        }
      ],
      "name": "permit",
      "outputs": [],
      "stateMutability": "nonpayable",
      "type": "function"
    },
    {
      "inputs": [],
      "name": "symbol",
      "outputs": [
        {
          "internalType": "string",
          "name": "",
          "type": "string"
        }
      ],
      "stateMutability": "view",
      "type": "function",
      "constant": true
    },
    {
      "inputs": [],
      "name": "totalSupply",
      "outputs": [
        {
          "internalType": "uint256",
          "name": "",
          "type": "uint256"
        }
      ],
      "stateMutability": "view",
      "type": "function",
      "constant": true
    },
    {
      "inputs": [
        {
          "internalType": "address",
          "name": "to",
          "type": "address"
        },
        {
          "internalType": "uint256",
          "name": "amount",
          "type": "uint256"
        }
      ],
      "name": "transfer",
      "outputs": [
        {
          "internalType": "bool",
          "name": "",
          "type": "bool"
        }
      ],
      "stateMutability": "nonpayable",
      "type": "function"
    },
    {
      "inputs": [
        {
          "internalType": "address",
          "name": "from",
          "type": "address"
        },
        {
          "internalType": "address",
          "name": "to",
          "type": "address"
        },
        {
          "internalType": "uint256",
          "name": "amount",
          "type": "uint256"
        }
      ],
      "name": "transferFrom",
      "outputs": [
        {
          "internalType": "bool",
          "name": "",
          "type": "bool"
        }
      ],
      "stateMutability": "nonpayable",
      "type": "function"
    },
    {
      "inputs": [
        {
          "internalType": "address",
          "name": "to",
          "type": "address"
        },
        {
          "internalType": "uint256",
          "name": "amount",
          "type": "uint256"
        }
      ],
      "name": "mint",
      "outputs": [],
      "stateMutability": "nonpayable",
      "type": "function"
    }
  ],
  "bytecode": "0x6101406040523480156200001257600080fd5b506040518060400160405280600881526020017f5369676e436f696e000000000000000000000000000000000000000000000000815250806040518060400160405280600181526020017f31000000000000000000000000000000000000000000000000000000000000008152506040518060400160405280600881526020017f5369676e436f696e0000000000000000000000000000000000000000000000008152506040518060400160405280600481526020017f5349474e00000000000000000000000000000000000000000000000000000000815250816003908051906020019062000104929190620003df565b5080600490805190602001906200011d929190620003df565b50505060008280519060200120905060008280519060200120905060007f8b73c3c69bb8fe3d512ecc4cf759cc79239f7b179b0ffacaa9a75d522b39400f90508260e081815250508161010081815250504660a08181525050620001898184846200021760201b60201c565b608081815250503073ffffffffffffffffffffffffffffffffffffffff1660c08173ffffffffffffffffffffffffffffffffffffffff16815250508061012081815250505050505050506200021133620001e86200025360201b60201c565b600a620001f6919062000629565b6103e86200020591906200067a565b6200025c60201b60201c565b6200090b565b60008383834630604051602001620002349594939291906200074c565b6040516020818303038152906040528051906020012090509392505050565b60006012905090565b600073ffffffffffffffffffffffffffffffffffffffff168273ffffffffffffffffffffffffffffffffffffffff161415620002cf576040517f08c379a0000000000000000000000000000000000000000000000000000000008152600401620002c6906200080a565b60405180910390fd5b620002e360008383620003d560201b60201c565b8060026000828254620002f791906200082c565b92505081905550806000808473ffffffffffffffffffffffffffffffffffffffff1673ffffffffffffffffffffffffffffffffffffffff16815260200190815260200160002060008282546200034e91906200082c565b925050819055508173ffffffffffffffffffffffffffffffffffffffff16600073ffffffffffffffffffffffffffffffffffffffff167fddf252ad1be2c89b69c2b068fc378daa952ba7f163c4a11628f55a4df523b3ef83604051620003b5919062000889565b60405180910390a3620003d160008383620003da60201b60201c565b5050565b505050565b505050565b828054620003ed90620008d5565b90600052602060002090601f0160209004810192826200041157600085556200045d565b82601f106200042c57805160ff19168380011785556200045d565b828001600101855582156200045d579182015b828111156200045c5782518255916020019190600101906200043f565b5b5090506200046c919062000470565b5090565b5b808211156200048b57600081600090555060010162000471565b5090565b7f4e487b7100000000000000000000000000000000000000000000000000000000600052601160045260246000fd5b60008160011c9050919050565b6000808291508390505b60018511156200051d57808604811115620004f557620004f46200048f565b5b6001851615620005055780820291505b80810290506200051585620004be565b9450620004d5565b94509492505050565b6000826200053857600190506200060b565b816200054857600090506200060b565b81600181146200056157600281146200056c57620005a2565b60019150506200060b565b60ff8411156200058157620005806200048f565b5b8360020a9150848211156200059b576200059a6200048f565b5b506200060b565b5060208310610133831016604e8410600b8410161715620005dc5782820a905083811115620005d657620005d56200048f565b5b6200060b565b620005eb8484846001620004cb565b925090508184048111156200060557620006046200048f565b5b81810290505b9392505050565b6000819050919050565b600060ff82169050919050565b6000620006368262000612565b915062000643836200061c565b9250620006727fffffffffffffffffffffffffffffffffffffffffffffffffffffffffffffffff848462000526565b905092915050565b6000620006878262000612565b9150620006948362000612565b9250817fffffffffffffffffffffffffffffffffffffffffffffffffffffffffffffffff0483118215151615620006d057620006cf6200048f565b5b828202905092915050565b6000819050919050565b620006f081620006db565b82525050565b620007018162000612565b82525050565b600073ffffffffffffffffffffffffffffffffffffffff82169050919050565b6000620007348262000707565b9050919050565b620007468162000727565b82525050565b600060a082019050620007636000830188620006e5565b620007726020830187620006e5565b620007816040830186620006e5565b620007906060830185620006f6565b6200079f60808301846200073b565b9695505050505050565b600082825260208201905092915050565b7f45524332303a206d696e7420746f20746865207a65726f206164647265737300600082015250565b6000620007f2601f83620007a9565b9150620007ff82620007ba565b602082019050919050565b600060208201905081810360008301526200082581620007e3565b9050919050565b6000620008398262000612565b9150620008468362000612565b9250827fffffffffffffffffffffffffffffffffffffffffffffffffffffffffffffffff038211156200087e576200087d6200048f565b5b828201905092915050565b6000602082019050620008a06000830184620006f6565b92915050565b7f4e487b7100000000000000000000000000000000000000000000000000000000600052602260045260246000fd5b60006002820490506001821680620008ee57607f821691505b60208210811415620009055762000904620008a6565b5b50919050565b60805160a05160c05160e05161010051610120516121cd6200095b6000396000610dae01526000610df001526000610dcf01526000610d0401526000610d5a01526000610d8301526121cd6000f3fe608060405234801561001057600080fd5b50600436106100f55760003560e01c806340c10f1911610097578063a457c2d711610066578063a457c2d71461029c578063a9059cbb146102cc578063d505accf146102fc578063dd62ed3e14610318576100f5565b806340c10f191461020257806370a082311461021e5780637ecebe001461024e57806395d89b411461027e576100f5565b806323b872dd116100d357806323b872dd14610166578063313ce567146101965780633644e515146101b457806339509351146101d2576100f5565b806306fdde03146100fa578063095ea7b31461011857806318160ddd14610148575b600080fd5b610102610348565b60405161010f9190611433565b60405180910390f35b610132600480360381019061012d91906114ee565b6103da565b60405161013f9190611549565b60405180910390f35b6101506103fd565b60405161015d9190611573565b60405180910390f35b610180600480360381019061017b919061158e565b610407565b60405161018d9190611549565b60405180910390f35b61019e610436565b6040516101ab91906115fd565b60405180910390f35b6101bc61043f565b6040516101c99190611631565b60405180910390f35b6101ec60048036038101906101e791906114ee565b61044e565b6040516101f99190611549565b60405180910390f35b61021c600480360381019061021791906114ee565b610485565b005b6102386004803603810190610233919061164c565b610493565b6040516102459190611573565b60405180910390f35b6102686004803603810190610263919061164c565b6104db565b6040516102759190611573565b60405180910390f35b61028661052b565b6040516102939190611433565b60405180910390f35b6102b660048036038101906102b191906114ee565b6105bd565b6040516102c39190611549565b60405180910390f35b6102e660048036038101906102e191906114ee565b610634565b6040516102f39190611549565b60405180910390f35b610316600480360381019061031191906116d1565b610657565b005b610332600480360381019061032d9190611773565b610799565b60405161033f9190611573565b60405180910390f35b606060038054610357906117e2565b80601f0160208091040260200160405190810160405280929190818152602001828054610383906117e2565b80156103d05780601f106103a5576101008083540402835291602001916103d0565b820191906000526020600020905b8154815290600101906020018083116103b357829003601f168201915b5050505050905090565b6000806103e5610820565b90506103f2818585610828565b600191505092915050565b6000600254905090565b600080610412610820565b905061041f8582856109f3565b61042a858585610a7f565b60019150509392505050565b60006012905090565b6000610449610d00565b905090565b600080610459610820565b905061047a81858561046b8589610799565b6104759190611843565b610828565b600191505092915050565b61048f8282610e1a565b5050565b60008060008373ffffffffffffffffffffffffffffffffffffffff1673ffffffffffffffffffffffffffffffffffffffff168152602001908152602001600020549050919050565b6000610524600560008473ffffffffffffffffffffffffffffffffffffffff1673ffffffffffffffffffffffffffffffffffffffff168152602001908152602001600020610f7a565b9050919050565b60606004805461053a906117e2565b80601f0160208091040260200160405190810160405280929190818152602001828054610566906117e2565b80156105b35780601f10610588576101008083540402835291602001916105b3565b820191906000526020600020905b81548152906001019060200180831161059657829003601f168201915b5050505050905090565b6000806105c8610820565b905060006105d68286610799565b90508381101561061b576040517f08c379a00000000000000000000000000000000000000000000000000000000081526004016106129061190b565b60405180910390fd5b6106288286868403610828565b60019250505092915050565b60008061063f610820565b905061064c818585610a7f565b600191505092915050565b8342111561069a576040517f08c379a000000000000000000000000000000000000000000000000000000000815260040161069190611977565b60405180910390fd5b60007f6e71edae12b1b97f4d1f60370fef10105fa2faae0126114a169c64845d6126c98888886106c98c610f88565b896040516020016106df969594939291906119a6565b604051602081830303815290604052805190602001209050600061070282610fe6565b9050600061071282878787611000565b90508973ffffffffffffffffffffffffffffffffffffffff168173ffffffffffffffffffffffffffffffffffffffff1614610782576040517f08c379a000000000000000000000000000000000000000000000000000000000815260040161077990611a53565b60405180910390fd5b61078d8a8a8a610828565b50505050505050505050565b6000600160008473ffffffffffffffffffffffffffffffffffffffff1673ffffffffffffffffffffffffffffffffffffffff16815260200190815260200160002060008373ffffffffffffffffffffffffffffffffffffffff1673ffffffffffffffffffffffffffffffffffffffff16815260200190815260200160002054905092915050565b600033905090565b600073ffffffffffffffffffffffffffffffffffffffff168373ffffffffffffffffffffffffffffffffffffffff161415610898576040517f08c379a000000000000000000000000000000000000000000000000000000000815260040161088f90611ae5565b60405180910390fd5b600073ffffffffffffffffffffffffffffffffffffffff168273ffffffffffffffffffffffffffffffffffffffff161415610908576040517f08c379a00000000000000000000000000000000000000000000000000000000081526004016108ff90611b77565b60405180910390fd5b80600160008573ffffffffffffffffffffffffffffffffffffffff1673ffffffffffffffffffffffffffffffffffffffff16815260200190815260200160002060008473ffffffffffffffffffffffffffffffffffffffff1673ffffffffffffffffffffffffffffffffffffffff168152602001908152602001600020819055508173ffffffffffffffffffffffffffffffffffffffff168373ffffffffffffffffffffffffffffffffffffffff167f8c5be1e5ebec7d5bd14f71427d1e84f3dd0314c0f7b2291e5b200ac8c7c3b925836040516109e69190611573565b60405180910390a3505050565b60006109ff8484610799565b90507fffffffffffffffffffffffffffffffffffffffffffffffffffffffffffffffff8114610a795781811015610a6b576040517f08c379a0000000000000000000000000000000000000000000000000000000008152600401610a6290611be3565b60405180910390fd5b610a788484848403610828565b5b50505050565b600073ffffffffffffffffffffffffffffffffffffffff168373ffffffffffffffffffffffffffffffffffffffff161415610aef576040517f08c379a0000000000000000000000000000000000000000000000000000000008152600401610ae690611c75565b60405180910390fd5b600073ffffffffffffffffffffffffffffffffffffffff168273ffffffffffffffffffffffffffffffffffffffff161415610b5f576040517f08c379a0000000000000000000000000000000000000000000000000000000008152600401610b5690611d07565b60405180910390fd5b610b6a83838361102b565b60008060008573ffffffffffffffffffffffffffffffffffffffff1673ffffffffffffffffffffffffffffffffffffffff16815260200190815260200160002054905081811015610bf0576040517f08c379a0000000000000000000000000000000000000000000000000000000008152600401610be790611d99565b60405180910390fd5b8181036000808673ffffffffffffffffffffffffffffffffffffffff1673ffffffffffffffffffffffffffffffffffffffff16815260200190815260200160002081905550816000808573ffffffffffffffffffffffffffffffffffffffff1673ffffffffffffffffffffffffffffffffffffffff1681526020019081526020016000206000828254610c839190611843565b925050819055508273ffffffffffffffffffffffffffffffffffffffff168473ffffffffffffffffffffffffffffffffffffffff167fddf252ad1be2c89b69c2b068fc378daa952ba7f163c4a11628f55a4df523b3ef84604051610ce79190611573565b60405180910390a3610cfa848484611030565b50505050565b60007f000000000000000000000000000000000000000000000000000000000000000073ffffffffffffffffffffffffffffffffffffffff163073ffffffffffffffffffffffffffffffffffffffff16148015610d7c57507f000000000000000000000000000000000000000000000000000000000000000046145b15610da9577f00000000000000000000000000000000000000000000000000000000000000009050610e17565b610e147f00000000000000000000000000000000000000000000000000000000000000007f00000000000000000000000000000000000000000000000000000000000000007f0000000000000000000000000000000000000000000000000000000000000000611035565b90505b90565b600073ffffffffffffffffffffffffffffffffffffffff168273ffffffffffffffffffffffffffffffffffffffff161415610e8a576040517f08c379a0000000000000000000000000000000000000000000000000000000008152600401610e8190611e05565b60405180910390fd5b610e966000838361102b565b8060026000828254610ea89190611843565b92505081905550806000808473ffffffffffffffffffffffffffffffffffffffff1673ffffffffffffffffffffffffffffffffffffffff1681526020019081526020016000206000828254610efd9190611843565b925050819055508173ffffffffffffffffffffffffffffffffffffffff16600073ffffffffffffffffffffffffffffffffffffffff167fddf252ad1be2c89b69c2b068fc378daa952ba7f163c4a11628f55a4df523b3ef83604051610f629190611573565b60405180910390a3610f7660008383611030565b5050565b600081600001549050919050565b600080600560008473ffffffffffffffffffffffffffffffffffffffff1673ffffffffffffffffffffffffffffffffffffffff1681526020019081526020016000209050610fd581610f7a565b9150610fe08161106f565b50919050565b6000610ff9610ff3610d00565b83611085565b9050919050565b6000806000611011878787876110b8565b9150915061101e816111c5565b8192505050949350505050565b505050565b505050565b60008383834630604051602001611050959493929190611e25565b6040516020818303038152906040528051906020012090509392505050565b6001816000016000828254019250508190555050565b6000828260405160200161109a929190611ef0565b60405160208183030381529060405280519060200120905092915050565b6000807f7fffffffffffffffffffffffffffffff5d576e7357a4501ddfe92f46681b20a08360001c11156110f35760006003915091506111bc565b601b8560ff161415801561110b5750601c8560ff1614155b1561111d5760006004915091506111bc565b6000600187878787604051600081526020016040526040516111429493929190611f27565b6020604051602081039080840390855afa158015611164573d6000803e3d6000fd5b505050602060405103519050600073ffffffffffffffffffffffffffffffffffffffff168173ffffffffffffffffffffffffffffffffffffffff1614156111b3576000600192509250506111bc565b80600092509250505b94509492505050565b600060048111156111d9576111d8611f6c565b5b8160048111156111ec576111eb611f6c565b5b14156111f757611397565b6001600481111561120b5761120a611f6c565b5b81600481111561121e5761121d611f6c565b5b141561125f576040517f08c379a000000000000000000000000000000000000000000000000000000000815260040161125690611fe7565b60405180910390fd5b6002600481111561127357611272611f6c565b5b81600481111561128657611285611f6c565b5b14156112c7576040517f08c379a00000000000000000000000000000000000000000000000000000000081526004016112be90612053565b60405180910390fd5b600360048111156112db576112da611f6c565b5b8160048111156112ee576112ed611f6c565b5b141561132f576040517f08c379a0000000000000000000000000000000000000000000000000000000008152600401611326906120e5565b60405180910390fd5b60048081111561134257611341611f6c565b5b81600481111561135557611354611f6c565b5b1415611396576040517f08c379a000000000000000000000000000000000000000000000000000000000815260040161138d90612177565b60405180910390fd5b5b50565b600081519050919050565b600082825260208201905092915050565b60005b838110156113d45780820151818401526020810190506113b9565b838111156113e3576000848401525b50505050565b6000601f19601f8301169050919050565b60006114058261139a565b61140f81856113a5565b935061141f8185602086016113b6565b611428816113e9565b840191505092915050565b6000602082019050818103600083015261144d81846113fa565b905092915050565b600080fd5b600073ffffffffffffffffffffffffffffffffffffffff82169050919050565b60006114858261145a565b9050919050565b6114958161147a565b81146114a057600080fd5b50565b6000813590506114b28161148c565b92915050565b6000819050919050565b6114cb816114b8565b81146114d657600080fd5b50565b6000813590506114e8816114c2565b92915050565b6000806040838503121561150557611504611455565b5b6000611513858286016114a3565b9250506020611524858286016114d9565b9150509250929050565b60008115159050919050565b6115438161152e565b82525050565b600060208201905061155e600083018461153a565b92915050565b61156d816114b8565b82525050565b60006020820190506115886000830184611564565b92915050565b6000806000606084860312156115a7576115a6611455565b5b60006115b5868287016114a3565b93505060206115c6868287016114a3565b92505060406115d7868287016114d9565b9150509250925092565b600060ff82169050919050565b6115f7816115e1565b82525050565b600060208201905061161260008301846115ee565b92915050565b6000819050919050565b61162b81611618565b82525050565b60006020820190506116466000830184611622565b92915050565b60006020828403121561166257611661611455565b5b6000611670848285016114a3565b91505092915050565b611682816115e1565b811461168d57600080fd5b50565b60008135905061169f81611679565b92915050565b6116ae81611618565b81146116b957600080fd5b50565b6000813590506116cb816116a5565b92915050565b600080600080600080600060e0888a0312156116f0576116ef611455565b5b60006116fe8a828b016114a3565b975050602061170f8a828b016114a3565b96505060406117208a828b016114d9565b95505060606117318a828b016114d9565b94505060806117428a828b01611690565b93505060a06117538a828b016116bc565b92505060c06117648a828b016116bc565b91505092959891949750929550565b6000806040838503121561178a57611789611455565b5b6000611798858286016114a3565b92505060206117a9858286016114a3565b9150509250929050565b7f4e487b7100000000000000000000000000000000000000000000000000000000600052602260045260246000fd5b600060028204905060018216806117fa57607f821691505b6020821081141561180e5761180d6117b3565b5b50919050565b7f4e487b7100000000000000000000000000000000000000000000000000000000600052601160045260246000fd5b600061184e826114b8565b9150611859836114b8565b9250827fffffffffffffffffffffffffffffffffffffffffffffffffffffffffffffffff0382111561188e5761188d611814565b5b828201905092915050565b7f45524332303a2064656372656173656420616c6c6f77616e63652062656c6f7760008201527f207a65726f000000000000000000000000000000000000000000000000000000602082015250565b60006118f56025836113a5565b915061190082611899565b604082019050919050565b60006020820190508181036000830152611924816118e8565b9050919050565b7f45524332305065726d69743a206578706972656420646561646c696e65000000600082015250565b6000611961601d836113a5565b915061196c8261192b565b602082019050919050565b6000602082019050818103600083015261199081611954565b9050919050565b6119a08161147a565b82525050565b600060c0820190506119bb6000830189611622565b6119c86020830188611997565b6119d56040830187611997565b6119e26060830186611564565b6119ef6080830185611564565b6119fc60a0830184611564565b979650505050505050565b7f45524332305065726d69743a20696e76616c6964207369676e61747572650000600082015250565b6000611a3d601e836113a5565b9150611a4882611a07565b602082019050919050565b60006020820190508181036000830152611a6c81611a30565b9050919050565b7f45524332303a20617070726f76652066726f6d20746865207a65726f2061646460008201527f7265737300000000000000000000000000000000000000000000000000000000602082015250565b6000611acf6024836113a5565b9150611ada82611a73565b604082019050919050565b60006020820190508181036000830152611afe81611ac2565b9050919050565b7f45524332303a20617070726f766520746f20746865207a65726f20616464726560008201527f7373000000000000000000000000000000000000000000000000000000000000602082015250565b6000611b616022836113a5565b9150611b6c82611b05565b604082019050919050565b60006020820190508181036000830152611b9081611b54565b9050919050565b7f45524332303a20696e73756666696369656e7420616c6c6f77616e6365000000600082015250565b6000611bcd601d836113a5565b9150611bd882611b97565b602082019050919050565b60006020820190508181036000830152611bfc81611bc0565b9050919050565b7f45524332303a207472616e736665722066726f6d20746865207a65726f20616460008201527f6472657373000000000000000000000000000000000000000000000000000000602082015250565b6000611c5f6025836113a5565b9150611c6a82611c03565b604082019050919050565b60006020820190508181036000830152611c8e81611c52565b9050919050565b7f45524332303a207472616e7366657220746f20746865207a65726f206164647260008201527f6573730000000000000000000000000000000000000000000000000000000000602082015250565b6000611cf16023836113a5565b9150611cfc82611c95565b604082019050919050565b60006020820190508181036000830152611d2081611ce4565b9050919050565b7f45524332303a207472616e7366657220616d6f756e742065786365656473206260008201527f616c616e63650000000000000000000000000000000000000000000000000000602082015250565b6000611d836026836113a5565b9150611d8e82611d27565b604082019050919050565b60006020820190508181036000830152611db281611d76565b9050919050565b7f45524332303a206d696e7420746f20746865207a65726f206164647265737300600082015250565b6000611def601f836113a5565b9150611dfa82611db9565b602082019050919050565b60006020820190508181036000830152611e1e81611de2565b9050919050565b600060a082019050611e3a6000830188611622565b611e476020830187611622565b611e546040830186611622565b611e616060830185611564565b611e6e6080830184611997565b9695505050505050565b600081905092915050565b7f1901000000000000000000000000000000000000000000000000000000000000600082015250565b6000611eb9600283611e78565b9150611ec482611e83565b600282019050919050565b6000819050919050565b611eea611ee582611618565b611ecf565b82525050565b6000611efb82611eac565b9150611f078285611ed9565b602082019150611f178284611ed9565b6020820191508190509392505050565b6000608082019050611f3c6000830187611622565b611f4960208301866115ee565b611f566040830185611622565b611f636060830184611622565b95945050505050565b7f4e487b7100000000000000000000000000000000000000000000000000000000600052602160045260246000fd5b7f45434453413a20696e76616c6964207369676e61747572650000000000000000600082015250565b6000611fd16018836113a5565b9150611fdc82611f9b565b602082019050919050565b6000602082019050818103600083015261200081611fc4565b9050919050565b7f45434453413a20696e76616c6964207369676e6174757265206c656e67746800600082015250565b600061203d601f836113a5565b915061204882612007565b602082019050919050565b6000602082019050818103600083015261206c81612030565b9050919050565b7f45434453413a20696e76616c6964207369676e6174757265202773272076616c60008201527f7565000000000000000000000000000000000000000000000000000000000000602082015250565b60006120cf6022836113a5565b91506120da82612073565b604082019050919050565b600060208201905081810360008301526120fe816120c2565b9050919050565b7f45434453413a20696e76616c6964207369676e6174757265202776272076616c60008201527f7565000000000000000000000000000000000000000000000000000000000000602082015250565b60006121616022836113a5565b915061216c82612105565b604082019050919050565b6000602082019050818103600083015261219081612154565b905091905056fea26469706673582212207ef967f0f7d4ff6b419e1e1cbc1a1e9441c6d477d55ca2aa470c9f18cb3498fd64736f6c634300080a0033",
  "immutableReferences": {
    "1612": [
      {
        "length": 32,
        "start": 3459
      }
    ],
    "1614": [
      {
        "length": 32,
        "start": 3418
      }
    ],
    "1616": [
      {
        "length": 32,
        "start": 3332
      }
    ],
    "1618": [
      {
        "length": 32,
        "start": 3535
      }
    ],
    "1620": [
      {
        "length": 32,
        "start": 3568
      }
    ],
    "1622": [
      {
        "length": 32,
        "start": 3502
      }
    ]
  },
  "source": "// SPDX-License-Identifier: GPL-3.0\npragma solidity ^0.8.10;\n\nimport \"@openzeppelin/contracts/token/ERC20/ERC20.sol\";\nimport \"@openzeppelin/contracts/token/ERC20/extensions/draft-ERC20Permit.sol\";\n\ncontract SignCoin is ERC20, ERC20Permit\n{\n    constructor() ERC20(\"SignCoin\", \"SIGN\") ERC20Permit(\"SignCoin\") {\n        _mint(msg.sender, 1000 * 10 ** decimals());\n    }\n\n    function mint(address to, uint256 amount) public {\n        _mint(to, amount);\n    }\n}\n",
  "sourcePath": "/home/renny/doc/web3_arc/erc20-permit/contracts/SignCoin.sol",
  "compiler": {
    "name": "solc",
    "version": "0.8.10+commit.fc410830.Emscripten.clang"
  },
  "schemaVersion": "3.4.9",
  "updatedAt": "2022-08-20T23:13:33.809Z",
  "networkType": "ethereum",
  "devdoc": {
    "kind": "dev",
    "methods": {
      "DOMAIN_SEPARATOR()": {
        "details": "See {IERC20Permit-DOMAIN_SEPARATOR}."
      },
      "allowance(address,address)": {
        "details": "See {IERC20-allowance}."
      },
      "approve(address,uint256)": {
        "details": "See {IERC20-approve}. NOTE: If `amount` is the maximum `uint256`, the allowance is not updated on `transferFrom`. This is semantically equivalent to an infinite approval. Requirements: - `spender` cannot be the zero address."
      },
      "balanceOf(address)": {
        "details": "See {IERC20-balanceOf}."
      },
      "decimals()": {
        "details": "Returns the number of decimals used to get its user representation. For example, if `decimals` equals `2`, a balance of `505` tokens should be displayed to a user as `5.05` (`505 / 10 ** 2`). Tokens usually opt for a value of 18, imitating the relationship between Ether and Wei. This is the value {ERC20} uses, unless this function is overridden; NOTE: This information is only used for _display_ purposes: it in no way affects any of the arithmetic of the contract, including {IERC20-balanceOf} and {IERC20-transfer}."
      },
      "decreaseAllowance(address,uint256)": {
        "details": "Atomically decreases the allowance granted to `spender` by the caller. This is an alternative to {approve} that can be used as a mitigation for problems described in {IERC20-approve}. Emits an {Approval} event indicating the updated allowance. Requirements: - `spender` cannot be the zero address. - `spender` must have allowance for the caller of at least `subtractedValue`."
      },
      "increaseAllowance(address,uint256)": {
        "details": "Atomically increases the allowance granted to `spender` by the caller. This is an alternative to {approve} that can be used as a mitigation for problems described in {IERC20-approve}. Emits an {Approval} event indicating the updated allowance. Requirements: - `spender` cannot be the zero address."
      },
      "name()": {
        "details": "Returns the name of the token."
      },
      "nonces(address)": {
        "details": "See {IERC20Permit-nonces}."
      },
      "permit(address,address,uint256,uint256,uint8,bytes32,bytes32)": {
        "details": "See {IERC20Permit-permit}."
      },
      "symbol()": {
        "details": "Returns the symbol of the token, usually a shorter version of the name."
      },
      "totalSupply()": {
        "details": "See {IERC20-totalSupply}."
      },
      "transfer(address,uint256)": {
        "details": "See {IERC20-transfer}. Requirements: - `to` cannot be the zero address. - the caller must have a balance of at least `amount`."
      },
      "transferFrom(address,address,uint256)": {
        "details": "See {IERC20-transferFrom}. Emits an {Approval} event indicating the updated allowance. This is not required by the EIP. See the note at the beginning of {ERC20}. NOTE: Does not update the allowance if the current allowance is the maximum `uint256`. Requirements: - `from` and `to` cannot be the zero address. - `from` must have a balance of at least `amount`. - the caller must have allowance for ``from``'s tokens of at least `amount`."
      }
    },
    "version": 1
  },
  "userdoc": {
    "kind": "user",
    "methods": {},
    "version": 1
  }
}